{
    "_format": "hh-sol-artifact-1",
    "contractName": "IdentityRegistry",
    "sourceName": "contracts/IdentityRegistry.sol",
    "abi": [
        {
            "anonymous": false,
            "inputs": [
                {
                    "indexed": true,
                    "internalType": "address",
                    "name": "user",
                    "type": "address"
                }
            ],
            "name": "IdentityRegistered",
            "type": "event"
        },
        {
            "anonymous": false,
            "inputs": [
                {
                    "indexed": true,
                    "internalType": "address",
                    "name": "user",
                    "type": "address"
                }
            ],
            "name": "IdentityUpdated",
            "type": "event"
        },
        {
            "inputs": [
                {
                    "internalType": "address",
                    "name": "_user",
                    "type": "address"
                }
            ],
            "name": "getIdentity",
            "outputs": [
                {
                    "components": [
                        {
                            "internalType": "string",
                            "name": "name",
                            "type": "string"
                        },
                        {
                            "internalType": "string",
                            "name": "email",
                            "type": "string"
                        },
                        {
                            "internalType": "string",
                            "name": "phoneNumber",
                            "type": "string"
                        },
                        {
                            "internalType": "string",
                            "name": "dateOfBirth",
                            "type": "string"
                        }
                    ],
                    "internalType": "struct IdentityRegistry.Identity",
                    "name": "",
                    "type": "tuple"
                }
            ],
            "stateMutability": "view",
            "type": "function"
        },
        {
            "inputs": [],
            "name": "getMyIdentity",
            "outputs": [
                {
                    "components": [
                        {
                            "internalType": "string",
                            "name": "name",
                            "type": "string"
                        },
                        {
                            "internalType": "string",
                            "name": "email",
                            "type": "string"
                        },
                        {
                            "internalType": "string",
                            "name": "phoneNumber",
                            "type": "string"
                        },
                        {
                            "internalType": "string",
                            "name": "dateOfBirth",
                            "type": "string"
                        }
                    ],
                    "internalType": "struct IdentityRegistry.Identity",
                    "name": "",
                    "type": "tuple"
                }
            ],
            "stateMutability": "view",
            "type": "function"
        },
        {
            "inputs": [
                {
                    "internalType": "string",
                    "name": "_name",
                    "type": "string"
                },
                {
                    "internalType": "string",
                    "name": "_email",
                    "type": "string"
                },
                {
                    "internalType": "string",
                    "name": "_phoneNumber",
                    "type": "string"
                },
                {
                    "internalType": "string",
                    "name": "_dateOfBirth",
                    "type": "string"
                }
            ],
            "name": "registerIdentity",
            "outputs": [],
            "stateMutability": "nonpayable",
            "type": "function"
        },
        {
            "inputs": [
                {
                    "internalType": "string",
                    "name": "_name",
                    "type": "string"
                },
                {
                    "internalType": "string",
                    "name": "_email",
                    "type": "string"
                },
                {
                    "internalType": "string",
                    "name": "_phoneNumber",
                    "type": "string"
                },
                {
                    "internalType": "string",
                    "name": "_dateOfBirth",
                    "type": "string"
                }
            ],
            "name": "updateIdentity",
            "outputs": [],
            "stateMutability": "nonpayable",
            "type": "function"
        }
    ],
    "bytecode": "0x6080604052348015600f57600080fd5b5061125f8061001f6000396000f3fe608060405234801561001057600080fd5b506004361061004c5760003560e01c80632fea7b8114610051578063b34d30f414610081578063b9d696471461009d578063f398f6d9146100bb575b600080fd5b61006b60048036038101906100669190610af5565b6100d7565b6040516100789190610c2a565b60405180910390f35b61009b60048036038101906100969190610d81565b610407565b005b6100a561059a565b6040516100b29190610c2a565b60405180910390f35b6100d560048036038101906100d09190610d81565b6108c8565b005b6100df610a5b565b60008060008473ffffffffffffffffffffffffffffffffffffffff1673ffffffffffffffffffffffffffffffffffffffff168152602001908152602001600020600001805461012d90610e87565b90500361016f576040517f08c379a000000000000000000000000000000000000000000000000000000000815260040161016690610f15565b60405180910390fd5b6000808373ffffffffffffffffffffffffffffffffffffffff1673ffffffffffffffffffffffffffffffffffffffff1681526020019081526020016000206040518060800160405290816000820180546101c890610e87565b80601f01602080910402602001604051908101604052809291908181526020018280546101f490610e87565b80156102415780601f1061021657610100808354040283529160200191610241565b820191906000526020600020905b81548152906001019060200180831161022457829003601f168201915b5050505050815260200160018201805461025a90610e87565b80601f016020809104026020016040519081016040528092919081815260200182805461028690610e87565b80156102d35780601f106102a8576101008083540402835291602001916102d3565b820191906000526020600020905b8154815290600101906020018083116102b657829003601f168201915b505050505081526020016002820180546102ec90610e87565b80601f016020809104026020016040519081016040528092919081815260200182805461031890610e87565b80156103655780601f1061033a57610100808354040283529160200191610365565b820191906000526020600020905b81548152906001019060200180831161034857829003601f168201915b5050505050815260200160038201805461037e90610e87565b80601f01602080910402602001604051908101604052809291908181526020018280546103aa90610e87565b80156103f75780601f106103cc576101008083540402835291602001916103f7565b820191906000526020600020905b8154815290600101906020018083116103da57829003601f168201915b5050505050815250509050919050565b60008060003373ffffffffffffffffffffffffffffffffffffffff1673ffffffffffffffffffffffffffffffffffffffff168152602001908152602001600020600001805461045590610e87565b905014610497576040517f08c379a000000000000000000000000000000000000000000000000000000000815260040161048e90610f81565b60405180910390fd5b6040518060800160405280858152602001848152602001838152602001828152506000803373ffffffffffffffffffffffffffffffffffffffff1673ffffffffffffffffffffffffffffffffffffffff168152602001908152602001600020600082015181600001908161050b9190611157565b5060208201518160010190816105219190611157565b5060408201518160020190816105379190611157565b50606082015181600301908161054d9190611157565b509050503373ffffffffffffffffffffffffffffffffffffffff167fcae2f416e2ab213d7907943e6c1cf701343f6415fd0be1f0c3db985222ca04a560405160405180910390a250505050565b6105a2610a5b565b60008060003373ffffffffffffffffffffffffffffffffffffffff1673ffffffffffffffffffffffffffffffffffffffff16815260200190815260200160002060000180546105f090610e87565b905003610632576040517f08c379a000000000000000000000000000000000000000000000000000000000815260040161062990610f15565b60405180910390fd5b6000803373ffffffffffffffffffffffffffffffffffffffff1673ffffffffffffffffffffffffffffffffffffffff16815260200190815260200160002060405180608001604052908160008201805461068b90610e87565b80601f01602080910402602001604051908101604052809291908181526020018280546106b790610e87565b80156107045780601f106106d957610100808354040283529160200191610704565b820191906000526020600020905b8154815290600101906020018083116106e757829003601f168201915b5050505050815260200160018201805461071d90610e87565b80601f016020809104026020016040519081016040528092919081815260200182805461074990610e87565b80156107965780601f1061076b57610100808354040283529160200191610796565b820191906000526020600020905b81548152906001019060200180831161077957829003601f168201915b505050505081526020016002820180546107af90610e87565b80601f01602080910402602001604051908101604052809291908181526020018280546107db90610e87565b80156108285780601f106107fd57610100808354040283529160200191610828565b820191906000526020600020905b81548152906001019060200180831161080b57829003601f168201915b5050505050815260200160038201805461084190610e87565b80601f016020809104026020016040519081016040528092919081815260200182805461086d90610e87565b80156108ba5780601f1061088f576101008083540402835291602001916108ba565b820191906000526020600020905b81548152906001019060200180831161089d57829003601f168201915b505050505081525050905090565b60008060003373ffffffffffffffffffffffffffffffffffffffff1673ffffffffffffffffffffffffffffffffffffffff168152602001908152602001600020600001805461091690610e87565b905003610958576040517f08c379a000000000000000000000000000000000000000000000000000000000815260040161094f90610f15565b60405180910390fd5b6040518060800160405280858152602001848152602001838152602001828152506000803373ffffffffffffffffffffffffffffffffffffffff1673ffffffffffffffffffffffffffffffffffffffff16815260200190815260200160002060008201518160000190816109cc9190611157565b5060208201518160010190816109e29190611157565b5060408201518160020190816109f89190611157565b506060820151816003019081610a0e9190611157565b509050503373ffffffffffffffffffffffffffffffffffffffff167f46ec2a4949a858d89c042ca51257040b7a00700d5424a9a1670a165f0dc08e3560405160405180910390a250505050565b6040518060800160405280606081526020016060815260200160608152602001606081525090565b6000604051905090565b600080fd5b600080fd5b600073ffffffffffffffffffffffffffffffffffffffff82169050919050565b6000610ac282610a97565b9050919050565b610ad281610ab7565b8114610add57600080fd5b50565b600081359050610aef81610ac9565b92915050565b600060208284031215610b0b57610b0a610a8d565b5b6000610b1984828501610ae0565b91505092915050565b600081519050919050565b600082825260208201905092915050565b60005b83811015610b5c578082015181840152602081019050610b41565b60008484015250505050565b6000601f19601f8301169050919050565b6000610b8482610b22565b610b8e8185610b2d565b9350610b9e818560208601610b3e565b610ba781610b68565b840191505092915050565b60006080830160008301518482036000860152610bcf8282610b79565b91505060208301518482036020860152610be98282610b79565b91505060408301518482036040860152610c038282610b79565b91505060608301518482036060860152610c1d8282610b79565b9150508091505092915050565b60006020820190508181036000830152610c448184610bb2565b905092915050565b600080fd5b600080fd5b7f4e487b7100000000000000000000000000000000000000000000000000000000600052604160045260246000fd5b610c8e82610b68565b810181811067ffffffffffffffff82111715610cad57610cac610c56565b5b80604052505050565b6000610cc0610a83565b9050610ccc8282610c85565b919050565b600067ffffffffffffffff821115610cec57610ceb610c56565b5b610cf582610b68565b9050602081019050919050565b82818337600083830152505050565b6000610d24610d1f84610cd1565b610cb6565b905082815260208101848484011115610d4057610d3f610c51565b5b610d4b848285610d02565b509392505050565b600082601f830112610d6857610d67610c4c565b5b8135610d78848260208601610d11565b91505092915050565b60008060008060808587031215610d9b57610d9a610a8d565b5b600085013567ffffffffffffffff811115610db957610db8610a92565b5b610dc587828801610d53565b945050602085013567ffffffffffffffff811115610de657610de5610a92565b5b610df287828801610d53565b935050604085013567ffffffffffffffff811115610e1357610e12610a92565b5b610e1f87828801610d53565b925050606085013567ffffffffffffffff811115610e4057610e3f610a92565b5b610e4c87828801610d53565b91505092959194509250565b7f4e487b7100000000000000000000000000000000000000000000000000000000600052602260045260246000fd5b60006002820490506001821680610e9f57607f821691505b602082108103610eb257610eb1610e58565b5b50919050565b600082825260208201905092915050565b7f4964656e7469747920646f6573206e6f742065786973742e0000000000000000600082015250565b6000610eff601883610eb8565b9150610f0a82610ec9565b602082019050919050565b60006020820190508181036000830152610f2e81610ef2565b9050919050565b7f4964656e7469747920616c7265616479206578697374732e0000000000000000600082015250565b6000610f6b601883610eb8565b9150610f7682610f35565b602082019050919050565b60006020820190508181036000830152610f9a81610f5e565b9050919050565b60008190508160005260206000209050919050565b60006020601f8301049050919050565b600082821b905092915050565b6000600883026110037fffffffffffffffffffffffffffffffffffffffffffffffffffffffffffffffff82610fc6565b61100d8683610fc6565b95508019841693508086168417925050509392505050565b6000819050919050565b6000819050919050565b600061105461104f61104a84611025565b61102f565b611025565b9050919050565b6000819050919050565b61106e83611039565b61108261107a8261105b565b848454610fd3565b825550505050565b600090565b61109761108a565b6110a2818484611065565b505050565b5b818110156110c6576110bb60008261108f565b6001810190506110a8565b5050565b601f82111561110b576110dc81610fa1565b6110e584610fb6565b810160208510156110f4578190505b61110861110085610fb6565b8301826110a7565b50505b505050565b600082821c905092915050565b600061112e60001984600802611110565b1980831691505092915050565b6000611147838361111d565b9150826002028217905092915050565b61116082610b22565b67ffffffffffffffff81111561117957611178610c56565b5b6111838254610e87565b61118e8282856110ca565b600060209050601f8311600181146111c157600084156111af578287015190505b6111b9858261113b565b865550611221565b601f1984166111cf86610fa1565b60005b828110156111f7578489015182556001820191506020850194506020810190506111d2565b868310156112145784890151611210601f89168261111d565b8355505b6001600288020188555050505b50505050505056fea264697066735822122038f64d61fafb5dc2568df59b620ba042e2e6f3caed0b89a1b7a3c11df714b88e64736f6c634300081b0033",
    "linkReferences": {},
    "deployedLinkReferences": {}
}